:020000040800F2
:10000000002800200D080008490400084B040008DF
:100010004D0400084F0400085104000800000000CF
:100020000000000000000000000000005304000871
:100030005504000800000000570400085904000897
:10004000550800085508000855080008550800081C
:10005000550800085508000855080008550800080C
:1000600055080008550800086104000855080008F4
:100070005508000855080008550800086D040008D8
:1000800055080008550800085508000855080008DC
:1000900055080008550800085508000855080008CC
:1000A000550800087D040008550800085508000898
:1000B0005508000855080008000000005508000811
:1000C0005508000800000000000000005508000866
:1000D000000000008D040008550800080000000022
:1000E0009D0400085508000855080008000000009D
:1000F0000000000000000000000000000000000000
:0C01000000000000000000005FF808F1A3
:10010C000348044B834202D0034B03B1184770479A
:10011C001400002014000020000000000548064BCD
:10012C001B1AD90F01EBA301491002D0034B03B1E9
:10013C001847704714000020140000200000000035
:10014C0010B5064C237843B9FFF7DAFF044B13B113
:10015C000448AFF300800123237010BD140000206D
:10016C00000000009C32000808B5054B1BB1054986
:10017C000548AFF30080BDE80840FFF7CFBF00BFD4
:10018C0000000000180000209C32000800B585B06B
:10019C0000230193029303931048114A0260836079
:1001AC00037303754FF46022C26143600123036142
:1001BC0000F010FF60B90123019302930023039315
:1001CC0001A9064800F082FD28B905B05DF804FBD2
:1001DC0000F096F8EFE700F093F8F6E73000002017
:1001EC000024014000B587B00023029303930493CD
:1001FC0005930268114B9A4202D007B05DF804FBDC
:10020C0003F56C439A6942F400729A619A6902F49C
:10021C0000720092009A9A6942F004029A619B69FA
:10022C0003F004030193019B022302930323039322
:10023C0002A9034801F07AF9DFE700BF002401406E
:10024C000008014000B583B00A4B5A6942F0010224
:10025C005A615B6903F001030193019B0022114673
:10026C000F2000F09BFF0F2000F0A8FF03B05DF8FB
:10027C0004FB00BF0010024010B588B000240494A9
:10028C000594069407941B4B9A6942F020029A61DC
:10029C009A6902F020020192019A9A6942F00402D2
:1002AC009A619A6902F004020292029A9A6942F0E7
:1002BC0008029A619B6903F008030393039B41F2C4
:1002CC00100304930C4B059304A90C4801F02EF970
:1002DC00224621460A2000F061FF0A2000F06EFF42
:1002EC0022462146282000F059FF282000F066FF06
:1002FC0008B010BD0010024000001110000C0140AD
:10030C0072B6FEE700B595B0282200210DEB020075
:10031C0002F0DEFE002305930693079308930993DE
:10032C00019302930393049301220A924FF48033B6
:10033C000B930E920222119212934FF4E01313932B
:10034C000AA801F021FAC8B90F23059302210691DE
:10035C00002307934FF480620892099305A801F0DB
:10036C0045FC68B9022301934FF40043039301A8A1
:10037C0001F018FD30B915B05DF804FBFFF7C0FFB4
:10038C00FFF7BEFFFFF7BCFF08B500F0B5FBFFF7AA
:10039C00B9FFFFF771FFFFF755FFFFF7F7FE00F00E
:1003AC00B7F900F07DF800F053F900F0B3F80E4CFB
:1003BC0080220E49204602F059FEE36B1A6813683E
:1003CC0023F0040313600A4801F0CCFE094C082109
:1003DC00204602F073F90C21204602F06FF92368D5
:1003EC000022DA631A64FEE77C010020C4010020BD
:1003FC00F0000020A800002082B00E4B9A6942F059
:10040C0001029A619A6902F001020092009ADA697B
:10041C0042F08052DA61DB6903F080530193019B57
:10042C00054A536823F0E06343F00073536002B055
:10043C00704700BF0010024000000140FEE7FEE7DD
:10044C00FEE7FEE7FEE770477047704708B500F01F
:10045C0065FB08BD08B5102001F072F908BD00005D
:10046C0008B5024800F0C0FF08BD00BF38010020ED
:10047C0008B5024801F0ABFE08BD00BFF00000203B
:10048C0008B5024802F002FC08BD00BF7C01002048
:10049C0008B54FF4805001F053F908BD70470000C7
:1004AC0000B587B000230293039304930593009344
:1004BC0001931648164A026047224260836042F25A
:1004CC000F72C260036143618023836101F068FF96
:1004DC0090B94FF48053029302A90C4802F060F8D3
:1004EC0068B90023009301936946084802F050F95B
:1004FC0040B907B05DF804FBFFF702FFE9E7FFF72F
:10050C00FFFEEEE7FFF7FCFEF3E700BFF000002074
:10051C00002C014000B587B0002302930393049391
:10052C000593009301931548154A026047224260D7
:10053C0083604FF6FF72C2600361836101F030FF8C
:10054C0090B94FF48053029302A90C4802F028F89A
:10055C0068B90023009301936946084802F018F922
:10056C0040B907B05DF804FBFFF7CAFEE9E7FFF7F7
:10057C00C7FEEEE7FFF7C4FEF3E700BF6000002004
:10058C000004004000B585B003681B4A934208D0B4
:10059C00B3F1804F18D0194A934221D005B05DF8C1
:1005AC0004FB174B9A6942F400629A619B6903F44D
:1005BC0000630193019B00221146192000F0EEFD0F
:1005CC00192000F0FBFDE9E703F50433DA6942F08A
:1005DC000102DA61DB6903F001030293029BDDE7A0
:1005EC00074BDA6942F00202DA61DB6903F00203BD
:1005FC000393039BD2E700BF002C01400004004092
:10060C000010024000B587B00023029303930493BB
:10061C0005930368B3F1804F02D007B05DF804FB7B
:10062C0003F504339A6942F004029A619B6903F062
:10063C0004030193019B0C23029302230393059360
:10064C0002A9024800F072FFE7E700BF0008014072
:10065C0000B58FB000230A930B930C930D93089362
:10066C0009930193029303930493059306930793C1
:10067C0026484FF08042026047224260836063222A
:10068C00C26003618023836101F08AFE58BB4FF482
:10069C0080530A930AA91D4801F082FF30BB1B4806
:1006AC0001F0AAFE28BB00230893099308A9174858
:1006BC0002F06EF800BB60230193002302930393B6
:1006CC000593082201A9114801F0F0FEB8B90C22DB
:1006DC0001A90E4801F0EAFEA0B90C48FFF792FF01
:1006EC000FB05DF804FBFFF70BFED0E7FFF708FE39
:1006FC00D5E7FFF705FED6E7FFF702FEDBE7FFF7CE
:10070C00FFFDE4E7FFF7FCFDE7E700BFA8000020D2
:10071C0008B50A480A4B03604FF4E13343600023E9
:10072C008360C36003610C2242618361C36102F088
:10073C005EF900B908BDFFF7E3FDFBE77C01002083
:10074C000038014070B586B00023029303930493E4
:10075C0005930268264B9A4201D006B070BD044640
:10076C0003F558439A6942F480429A619A6902F4FB
:10077C0080420092009A9A6942F004029A619B6945
:10078C0003F004030193019B4FF4007302930223C3
:10079C00039303230593174E02A9304600F0C6FEBF
:1007AC004FF48063029300250395049502A930460B
:1007BC0000F0BCFE1048114B03604560856080233F
:1007CC00C360056145618561C56100F02FFD58B9B5
:1007DC00094BE3635C6200221146252000F0DEFC2D
:1007EC00252000F0EBFCB8E7FFF78AFDF0E700BF2F
:1007FC000038014000080140380100205800024038
:10080C00FFF74CFE0B480C490C4A002302E0D4586D
:10081C00C4500433C4188C42F9D3094A094C002340
:10082C0001E013600432A242FBD302F0A1FCFFF7FB
:10083C00ABFD7047000000201400002000330008BE
:10084C0014000020E8030020FEE70000024B1B68A8
:10085C000022DA631A647047A8000020044B0122BE
:10086C001A70044B1B680022DA6364221A64704706
:10087C0009000020A8000020044B02221A70044B2F
:10088C001B686422DA6300221A6470470900002096
:10089C00A8000020044B03221A70044B1B68502242
:1008AC00DA6364221A64704709000020A800002053
:1008BC0008B5084B1B78022B06D0032B07D0012B55
:1008CC0001D1FFF7CBFF08BDFFF7D6FFFBE7FFF722
:1008DC00E1FFF8E70900002038B50446064D28462C
:1008EC0001F002FC2A6800235362536AA342FCD332
:1008FC00014801F023FC38BD60000020164B8342F8
:10090C0000D0704710B5154B1B78FA2B0CD0124C3D
:10091C0080221249204602F0A9FBE36B1A68136887
:10092C0023F00403136010BD0C4B9B78FF2BEED10E
:10093C000A4B5B78F22B07D0F32B09D0F12BE6D1C5
:10094C00074B01221A70E2E7054B02221A70DEE710
:10095C00034B03221A70DAE77C010020C40100204B
:10096C0009000020102800D070470B4B1B78012B7E
:10097C0007D0022B0CD0032B06D1074B01221A7087
:10098C0002E0054B02221A70044B10225A61EBE76D
:10099C00014B03221A70F7E7090000200004014004
:1009AC0038B50268394B9A4200D038BDFFF780FF4A
:1009BC00374C204600F06EFA6421204600F0C0F857
:1009CC00204600F07FF9334D2860204600F086FB6E
:1009DC002B68314A1268934201D92F4A136040F6B2
:1009EC001B429342E1D92D498B7801338B702C4BF0
:1009FC001B784B70FF2304222A4802F028F82A4B5C
:100A0C001B78022B18D0032B2BD0012BCDD1FFF749
:100A1C001DFF49F64040FFF75FFFFFF71FFF49F648
:100A2C004040FFF759FFFFF711FF49F64040FFF731
:100A3C0053FFFFF713FFB8E7FFF708FF49F64040F5
:100A4C00FFF74AFFFFF718FF49F64040FFF744FF56
:100A5C00FFF7FCFE49F64040FFF73EFFFFF70CFFA7
:100A6C00A3E7FFF7F3FE49F64040FFF735FFFFF72A
:100A7C0011FF49F64040FFF72FFFFFF7E7FE49F65D
:100A8C004040FFF729FFFFF705FF8EE7002C0140E0
:100A9C003000002048020020440200200400002006
:100AAC00080000207C0100200900002010B504463D
:100ABC000E4B1A784FF47A73B3FBF2F30C4A1068AE
:100ACC00B0FBF3F000F088FB68B90F2C01D90120C2
:100ADC000AE0002221464FF0FF3000F05FFB054B8F
:100AEC001C60002000E0012010BD00BF0A000020A7
:100AFC00000000200C00002008B5074A136843F0E2
:100B0C0010031360032000F037FB0F20FFF7CEFF1C
:100B1C00FFF772FC002008BD00200240034A116858
:100B2C00034B1B780B441360704700BF4C02002032
:100B3C000A000020014B1868704700BF4C020020CF
:100B4C00F0B583B005460C4600230193FFF7F2FF86
:100B5C002B689A6812F4807F23D107465A6812F4E6
:100B6C00807F03D1DB6A13F4700F29D0504B1E68C1
:100B7C00022001F0A3F9B6FBF0F62B6819694D4A77
:100B8C00114236D1D96802F15C42114231D1196956
:100B9C00494A114240D1DA68484B1A423ED02923C7
:100BAC0041E0AB6A43F02003AB62002385F82430AC
:100BBC00012003B0F0BD2B681B6813F0020F0FD09F
:100BCC002B681B6813F0020F4FD1B4F1FF3FF7D025
:100BDC00002CF0D0FFF7AEFFC31BA342F0D9EAE71D
:100BEC00AB6A43F00403AB62002385F82430032086
:100BFC00DFE71969304A114204D1D96802F16E421B
:100C0C0011420DD019692E4A0A405AB9DA682C4B98
:100C1C0013405BB1FC2306E0292304E0142302E01B
:100C2C00542300E0FC2303FB06F607E05423FAE709
:100C3C00019BB34210D3019B01330193019BB3423F
:100C4C0013D2B4F1FF3FF6D0002CF1D0FFF772FFB6
:100C5C00C01BA042EFD9EBE7AB6A43F00403AB62D5
:100C6C00002385F824300320A3E72B686FF01202D1
:100C7C001A60AB6A43F40073AB622B689B6803F495
:100C8C006023B3F5602F01D0002092E7287B60B978
:100C9C00AB6A23F48073AB62AB6A13F4805F88D1C8
:100CAC00AB6A43F00103AB6283E7002081E700BF2E
:100CBC0000000020244992249224491292244900D5
:100CCC00499224000368D86C7047000030B482B09D
:100CDC000022019290F82420012A00F08F80034614
:100CEC00012280F824204A68062A2DD80468606BFB
:100CFC0002EB8202053A4FF01F0C0CFA02FC20EAC0
:100D0C000C000D6805FA02F2024362630A68092AB4
:100D1C0038D91C68E06802EB42021E3A4FF0070C0F
:100D2C000CFA02FC20EA0C008D6805FA02F2024370
:100D3C00E2600A68103A012A34D90020002283F8B4
:100D4C00242002B030BC70470C2A0DD80568286BE3
:100D5C0002EB8202233A1F24944020EA04000C6820
:100D6C00944020432863D1E70568E86A02EB8202CD
:100D7C00413A1F24944020EA04000C68944020431C
:100D8C00E862C3E71C68206902EB42024FF0070CD3
:100D9C000CFA02FC20EA0C008D6805FA02F2024300
:100DAC002261C6E71A681648824205D09A6A42F058
:100DBC0020029A620120C1E7906810F4000F1BD149
:100DCC00906840F4000090600A68102A01D000205E
:100DDC00B4E70C4A12680C49A1FB0212920C02EB0C
:100DEC0082025200019202E0019A013A0192019AA8
:100DFC00002AF9D10020A1E700209FE70220A0E7FC
:100E0C00002401400000002083DE1B4330B583B07A
:100E1C000023019303689A6812F0010F33D1044642
:100E2C009A6842F001029A60184B1B68184AA2FBA0
:100E3C0003239B0C019302E0019B013B0193019B5B
:100E4C00002BF9D1FFF776FE054623689B6813F05B
:100E5C00010F16D1FFF76EFE431B022BF5D9236849
:100E6C009B6813F0010FF0D1A36A43F01003A36247
:100E7C00E36A43F00103E362002384F82430012089
:100E8C0002E0002000E0002003B030BD0000002094
:100E9C0083DE1B4390F82430012B68D010B5044638
:100EAC00012380F82430FFF7B1FF00285BD1A36A3F
:100EBC0023F4407323F0010343F48073A36223688B
:100ECC002C4A934227D0A26A22F48012A2625A685A
:100EDC0012F4806F05D0A26A22F4405242F4805280
:100EEC00A262A26A12F4805F2BD0E26A22F00602A0
:100EFC00E262002284F824206FF002021A60236858
:100F0C009A6802F46022B2F5602F1DD09A6842F400
:100F1C0080129A602AE0A2F58062526812F4702F57
:100F2C00D1D0A26A42F48012A262134A526812F41F
:100F3C00806FD6D0A26A22F4405242F48052A26250
:100F4C00CFE70022E262D4E70A4A934204D09A68BF
:100F5C0042F4A0029A6009E0A2F58062526812F491
:100F6C00702FD3D1F3E7002384F8243010BD022076
:100F7C00704700BF002801400024014038B50368C9
:100F8C009A6812F0010F01D1002038BD04469A680E
:100F9C0022F001029A60FFF7CDFD054623689B689D
:100FAC0013F0010F13D0FFF7C5FD431B022BF5D92E
:100FBC0023689B6813F0010FF0D0A36A43F0100371
:100FCC00A362E36A43F00103E3620120DDE7002042
:100FDC00DBE7000000287BD070B50446836A002B49
:100FEC004DD02046FFF7CAFFA36A13F0100369D156
:100FFC00002867D1A26A22F4885222F0020242F041
:10100C000202A2626268E1690A43217B42EA410260
:10101C00A568B5F5807F02D0012D36D01D46267D02
:10102C00012E35D02668716821F46941294371601D
:10103C002568AE68274931401143A960A168B1F514
:10104C00807F01D0012902D12369013B1B05256852
:10105C00E96A21F470010B43EB62236899681E4B1B
:10106C000B409A4225D0A36A23F0120343F01003DD
:10107C00A362E36A43F00103E362012027E0C36249
:10108C0080F82430FFF7AEF8ABE74FF48075C6E775
:10109C0031B9A169013945EA413141F40065C1E733
:1010AC00A16A41F02001A162E16A41F00101E16213
:1010BC00B8E70023E362A36A23F0030343F00103C0
:1010CC00A36204E0A36A43F01003A362012070BD85
:1010DC0001207047FDF7E1FFFE0E1FFF90F8243052
:1010EC00012B13D010B50446012380F82430FFF7F0
:1010FC0045FF38B9A36A23F4885323F0010343F066
:10110C000103A362002384F8243010BD0220704731
:10111C00002808DB0901C9B200F1604000F561400C
:10112C0080F80013704700F00F000901C9B2014BA1
:10113C001954704714ED00E000B500F00700C0F141
:10114C00070CBCF1040F28BF4FF0040C031D062B39
:10115C000FD9C31E4FF0FF3E0EFA0CF021EA00012E
:10116C0099400EFA03FE22EA0E0241EA02005DF8F3
:10117C0004FB0023EEE70000074AD36823F4E06386
:10118C001B041B0C000200F4E060034343F0BF633C
:10119C0043F40033D360704700ED00E010B5044613
:1011AC00054BD868C0F30220FFF7C6FF0146204666
:1011BC00FFF7AEFF10BD00BF00ED00E0002807DB1D
:1011CC0000F01F02400901239340024A42F82030EC
:1011DC00704700BF00E100E00138B0F1807F0BD216
:1011EC004FF0E0235861054AF02182F823100020CB
:1011FC00986107221A6170470120704700ED00E0EA
:10120C0030B40124056CAC40C56B6C600468636041
:10121C004368102B05D0036899600368DA6030BC12
:10122C00704703689A600368D960F8E750B310B44C
:10123C0002460168144B0B441448A0FB03031B0922
:10124C009B001364124BD363022382F8213008688D
:10125C006FF30D10536894682343D46823431469C7
:10126C0023435469234394692343D469234303439D
:10127C000B6000209063012382F8213082F820005B
:10128C0010BC704701207047F8FFFDBFCDCCCCCC13
:10129C000000024038B5044690F82000012832D0F6
:1012AC00012084F8200094F82100C0B2012804D059
:1012BC00002384F82030022038BD022084F821005D
:1012CC000020A0632568286820F0010028602046D3
:1012DC00FFF796FFE36A5BB12268136843F00E03D5
:1012EC0013602268136843F0010313600020E3E7E6
:1012FC002268136823F0040313602268136843F018
:10130C000A031360EDE70220D6E7034690F821208C
:10131C00D2B2022A06D004228263002280F8202056
:10132C000120704701680A6822F00E020A60016809
:10133C000A6822F001020A60026CC06B012101FAFA
:10134C0002F2426083F82110002083F820007047DD
:10135C0008B590F82130DBB2022B03D00423836351
:10136C00012008BD0268136823F00E0313600268A5
:10137C00136823F0010313600368194A934214D0D5
:10138C00143293421FD0143293421ED01432934223
:10139C001ED0143293421ED01432934202D04FF01E
:1013AC00807203E04FF4801200E001220D4B5A6072
:1013BC00012380F82130002380F82030436B6BB17F
:1013CC0098470020CDE71022F0E74FF48072EDE74C
:1013DC004FF48052EAE74FF48032E7E70020C0E791
:1013EC00080002400000024038B5C36B1A6804685C
:1013FC002568016C04238B40134235D015F0040F83
:10140C0032D0236813F0200F03D1236823F0040398
:10141C0023600368434A934214D01432934218D089
:10142C001432934217D01432934217D01432934291
:10143C0017D01432934202D04FF0806203E04FF485
:10144C00800200E00422384B5A60C36A03B198470B
:10145C0038BD4022F7E74FF48062F4E74FF4804246
:10146C00F1E74FF48022EEE702238B4013423CD08D
:10147C0015F0020F39D0236813F0200F06D1236822
:10148C0023F00A032360012380F821300368254AE6
:10149C00934214D0143293421CD0143293421BD07A
:1014AC00143293421BD0143293421BD01432934209
:1014BC0002D04FF0007203E04FF4001200E0022261
:1014CC00194B5A60002380F82030836A002BBFD060
:1014DC009847BDE72022F3E74FF40072F0E74FF492
:1014EC000052EDE74FF40032EAE708238B40134239
:1014FC00AED015F0080FABD0236823F00E03236099
:10150C00026CC16B012303FA02F24A60836380F818
:10151C002130002380F82030036B002B98D09847A3
:10152C0096E700BF080002400000024070B582B090
:10153C000024A44687E07C4DAB4214D00CD8A5F512
:10154C008015AB420FD005F57025AB420BD0A5F53D
:10155C008015AB4212D106E0744DAB4203D005F5B9
:10156C008035AB420AD18B68002B00F0B580012B83
:10157C0000F0AD804261082400E0CC68BEF1FF0FA2
:10158C0000F2AC8006464FEA8C0233680F2595407A
:10159C0023EA050304FA02F2134333604B6813F099
:1015AC00805F4ED0624B9A6942F001029A619B694E
:1015BC0003F001030193019B4FEA9C02951C5D4BC8
:1015CC0053F825600CF00305AD000F23AB4026EA61
:1015DC000306594B984200F0888003F580639842CB
:1015EC0000F0858003F5806398427CD00323AB40E8
:1015FC00334302324F4D45F822304B6813F4801FB1
:10160C0077D04E4A936843EA0E0393604B6813F409
:10161C00001F74D0494AD36843EA0E03D3604B6869
:10162C0013F4003F71D0454A536843EA0E035360EC
:10163C004B6813F4803F6ED0404A136843EA0E03A4
:10164C0013600CF1010C0B6833FA0CF269D0012217
:10165C0002FA0CF203EA020E32EA0303F1D14B68F0
:10166C00122B3FF668AF122B88D801A555F823F042
:10167C007315000887150008CF160008E11600083E
:10168C0089150008891500088915000889150008B6
:10169C0089150008891500088915000889150008A6
:1016AC008915000889150008891500088915000896
:1016BC0089150008C9160008D5160008CC68043432
:1016CC005CE7CC68083459E7CC680C3456E7026107
:1016DC00082453E7002451E704244FE7061DACF11E
:1016EC000802920051E7022381E700237FE70123E0
:1016FC007DE7124A936823EA0E03936086E70F4A4C
:10170C00D36823EA0E03D36089E70C4A536823EAB3
:10171C000E0353608CE7094A136823EA0E03136027
:10172C008FE702B070BD00BF000022100000311026
:10173C00001002400000014000080140000401407C
:10174C0008B5054B5B69034200D108BD024B5861DB
:10175C00FFF708F9F9E700BF0004014082B0084B1D
:10176C001B68084AA2FB03235B0A00FB03F30193EB
:10177C0000BF019B5A1E0192002BF9D102B0704799
:10178C0000000020D34D6210002800F0F18170B5EC
:10179C0082B00446036813F0010F2CD0994B5B68A0
:1017AC0003F00C03042B1DD0964B5B6803F00C0369
:1017BC00082B12D06368B3F5803F41D0002B55D174
:1017CC0003F1804303F504331A6822F480321A6063
:1017DC001A6822F480221A6037E08A4B5B6813F493
:1017EC00803FE7D0874B1B6813F4003F03D063683E
:1017FC00002B00F0BF81236813F0020F75D0814BD2
:10180C005B6813F00C0F5FD07E4B5B6803F00C032E
:10181C00082B54D02369002B00F08A807A4B0122CC
:10182C001A60FFF787F90546764B1B6813F0020F19
:10183C0075D1FFF77FF9401B0228F5D903209EE1F3
:10184C00704A136843F480331360636843B3FFF743
:10185C0071F905466B4B1B6813F4003FCBD1FFF7B6
:10186C0069F9401B6428F5D9032088E1B3F5A02F52
:10187C0009D0644B1A6822F480321A601A6822F478
:10188C0080221A60E1E703F18043A3F53C331A6828
:10189C0042F480221A601A6842F480321A60D4E74B
:1018AC00FFF748F90546574B1B6813F4003FA2D0CD
:1018BC00FFF740F9401B6428F5D903205FE1514B39
:1018CC005B6813F4803FA5D14E4B1B6813F0020FDD
:1018DC0003D02369012B40F04F814A4A136823F04F
:1018EC00F803616943EAC1031360236813F0080F1E
:1018FC0033D0A369002B5CD0434B0122C3F8802466
:10190C00FFF718F905463F4B5B6A13F0020F21D124
:10191C00FFF710F9401B0228F5D903202FE1394AB3
:10192C00136823F0F803616943EAC1031360DCE731
:10193C00354B00221A60FFF7FDF80546314B1B684A
:10194C0013F0020FD1D0FFF7F5F8401B0228F5D9A0
:10195C00032014E10120FFF701FF236813F0040FAB
:10196C0000F09680274BDB6913F0805F34D1254B58
:10197C00DA6942F08052DA61DB6903F0805301933B
:10198C00019B0125214B1B6813F4807F26D0E36853
:10199C00012B3DD0002B53D103F1804303F50433CD
:1019AC001A6A22F001021A621A6A22F004021A62FE
:1019BC0033E0154B0022C3F88024FFF7BBF8054633
:1019CC00104B5B6A13F0020FC7D0FFF7B3F8401B44
:1019DC000228F5D90320D2E00025D3E70B4A13687F
:1019EC0043F480731360FFF7A5F80646074B1B689A
:1019FC0013F4807FCBD1FFF79DF8801B6428F5D9B9
:101A0C000320BCE000100240000042420070004085
:101A1C005F4A136A43F001031362E36833B3FFF7C1
:101A2C0089F806465A4B1B6A13F0020F2FD1FFF7A9
:101A3C0081F8801B41F288339842F3D903209EE051
:101A4C00052B09D0524B1A6A22F001021A621A6A4B
:101A5C0022F004021A62E0E74D4B1A6A42F00402CB
:101A6C001A621A6A42F001021A62D6E7FFF762F8AC
:101A7C000646474B1B6A13F0020F08D0FFF75AF8C3
:101A8C00801B41F288339842F3D9032077E0E5B903
:101A9C00E369002B72D03E4A526802F00C02082A0D
:101AAC0056D0022B17D03B4B00221A66FFF742F898
:101ABC000446374B1B6813F0007F47D0FFF73AF80A
:101ACC00001B0228F5D9032059E0314AD36923F0D1
:101ADC008053D361DCE72F4B00221A66FFF72AF8FC
:101AEC0005462B4B1B6813F0007F06D0FFF722F83E
:101AFC00401B0228F5D9032041E0236AB3F5803F4F
:101B0C001AD023494B6823F47413226A606A024387
:101B1C0013434B601F4B01221A66FFF70BF8044668
:101B2C001B4B1B6813F0007F0ED1FFF703F8001B53
:101B3C000228F5D9032022E0154A536823F4003318
:101B4C00A1680B435360DCE7002018E0002016E08E
:101B5C00012B16D00E4B5B6803F48031226A914244
:101B6C0011D103F47013626A93420ED1002006E087
:101B7C0001207047012002E0012000E0002002B0AB
:101B8C0070BD0120FBE70120F9E70120F7E700BF5A
:101B9C0000100240000042420F4B5B6803F00C0245
:101BAC00082A01D00D487047C3F383420C49885C66
:101BBC0013F4803F0BD0084B5B68C3F34043094AD6
:101BCC00D35C064A02FB00F0B0FBF3F07047064B07
:101BDC0003FB00F0704700BF0010024000127A00B7
:101BEC00D0320008CC32000800093D00002800F07B
:101BFC00A08070B50D460446524B1B6803F00703DA
:101C0C008B420BD24F4A136823F007030B4313602C
:101C1C00136803F007038B4240F08D80236813F0A8
:101C2C00020F17D013F0040F04D0474A536843F443
:101C3C00E0635360236813F0080F04D0424A5368E2
:101C4C0043F460535360404A536823F0F003A16897
:101C5C000B435360236813F0010F31D06368012BE1
:101C6C0020D0022B25D0384A126812F0020F64D013
:101C7C0035494A6822F0030213434B60FEF75AFFC2
:101C8C000646314B5B6803F00C036268B3EB820FC2
:101C9C0016D0FEF74FFF801B41F288339842F0D9E3
:101CAC00032045E0284A126812F4003FE0D10120DD
:101CBC003EE0254A126812F0007FD9D1012037E0AE
:101CCC00204B1B6803F00703AB420AD91D4A13686B
:101CDC0023F007032B431360136803F00703AB4295
:101CEC002DD1236813F0040F06D0174A536823F440
:101CFC00E063E1680B435360236813F0080F07D0CF
:101D0C00114A536823F46053216943EAC1035360B9
:101D1C00FFF742FF0C4B5B68C3F303130B4AD35C16
:101D2C00D8400B4B18600B4B1868FEF7BFFE002019
:101D3C0070BD012070470120FAE70120F8E701206F
:101D4C00F6E700BF0020024000100240BC32000841
:101D5C00000000200C000020014B1868704700BFE9
:101D6C000000002008B5FFF7F7FF044B5B68C3F3D6
:101D7C000223034AD35CD84008BD00BF00100240C8
:101D8C00B432000808B5FFF7E7FF044B5B68C3F3F8
:101D9C00C223034AD35CD84008BD00BF00100240E8
:101DAC00B432000870B582B00446036813F0010F1A
:101DBC0036D03F4BDB6913F0805F49D13C4BDA697D
:101DCC0042F08052DA61DB6903F080530193019B8E
:101DDC000125384B1B6813F4807F3BD0344B1B6AB6
:101DEC0013F4407313D0626802F440729A420ED01E
:101DFC002F4A136A23F440702F490126C1F840641E
:101E0C000026C1F84064106213F0010F36D1284A45
:101E1C00136A23F4407361680B431362002D3ED1A7
:101E2C00236813F0020F06D0214A536823F4404371
:101E3C00A1680B435360236813F0100F34D01C4A75
:101E4C00536823F48003E1680B43536000202CE0BB
:101E5C000025BEE7174A136843F480731360FEF73E
:101E6C0069FE0646134B1B6813F4807FB6D1FEF750
:101E7C0061FE801B6428F5D9032016E0FEF75AFE9C
:101E8C0006460B4B1B6A13F0020FC0D1FEF752FE35
:101E9C00801B41F288339842F3D9032005E0D369C3
:101EAC0023F08053D361BBE7002002B070BD00BFAC
:101EBC0000100240007000400000424208B50228A9
:101ECC004ED0102803D0012828D0002052E02B4BF4
:101EDC005A68186810F080704CD0C2F383432849BC
:101EEC00C85C12F4803F15D0244B5B68C3F34043AD
:101EFC00244AD25C244BB3FBF2F303FB00F01F4BE0
:101F0C005B6813F4800F35D14000204BA3FB0030ED
:101F1C0040082FE01E4B03FB00F0F0E7174B1B6A49
:101F2C0040F202321A40B2F5817F24D003F44073A0
:101F3C00B3F5007F04D0B3F5407F09D0002019E041
:101F4C000E4A526A12F0020FF5D049F6404011E0E9
:101F5C000A4B186810F400300CD04FF2244009E002
:101F6C00FFF710FF054B5B68C3F3813301335B0054
:101F7C00B0FBF3F008BD4FF40040FBE7001002404B
:101F8C00E4320008E032000800127A00ABAAAAAAD8
:101F9C0000093D0030B4026A036A23F001030362B6
:101FAC004568836923F073030C681C4322F002021A
:101FBC008B6813430B4A904206D0456084614A6893
:101FCC004263036230BC704723F00803CA681A43AB
:101FDC0022F0040325F440754A692A438D691543A0
:101FEC00EBE700BF002C014030B4036A026A22F414
:101FFC00807202624468C26922F073020D68154354
:10200C0023F400738A6843EA02230D4A904206D0F7
:10201C004460C5614A68C263036230BC704723F4F4
:10202C000063CA6843EA022323F4806324F4405417
:10203C004A6944EA02148A6944EA0214E8E700BFD8
:10204C00002C014030B4036A026A22F4805202620E
:10205C004468C26922F4E6420D6842EA052223F480
:10206C0000538D6843EA0533074DA84206D04460FF
:10207C00C2614A680264036230BC704724F4804435
:10208C004D6944EA8514F2E7002C014010B4036A50
:10209C00046A24F001040462846924F0F00C4CEA14
:1020AC00021223F00A030B438261036210BC7047D7
:1020BC0010B4036A046A24F010040462846924F4E2
:1020CC00704C4CEA023223F0A00343EA0113826104
:1020DC00036210BC7047836823F070030B4343F01A
:1020EC00070383607047000090F83D30DBB2012B92
:1020FC001ED1022380F83D3003680F4A93420CD066
:10210C00B3F1804F09D0A2F59432934205D01A68EE
:10211C0042F001021A60002070479A6802F0070230
:10212C00062A07D01A6842F001021A600020704794
:10213C000120704700207047002C01400368196A89
:10214C0041F21112114208D1196A40F24442114273
:10215C0003D11A6822F001021A60012380F83D3085
:10216C000020704790F83D30DBB2012B23D10223C5
:10217C0080F83D300268D36843F00103D3600368F4
:10218C000F4A93420CD0B3F1804F09D0A2F5943290
:10219C00934205D01A6842F001021A600020704781
:1021AC009A6802F00702062A07D01A6842F0010268
:1021BC001A6000207047012070470020704700BF54
:1021CC00002C01407047704770477047704770B5DE
:1021DC0004460368DE681D6915F0020F10D016F076
:1021EC00020F0DD06FF002021A610123037703680E
:1021FC009B6913F0030F5ED0FFF7E6FF00232377F4
:10220C0015F0040F12D016F0040F0FD023686FF0E6
:10221C0004021A610223237723689B6913F4407F1D
:10222C004FD02046FFF7D0FF0023237715F0080F7F
:10223C0012D016F0080F0FD023686FF008021A6145
:10224C00042323772368DB6913F0030F40D0204667
:10225C00FFF7BAFF0023237715F0100F12D016F0FA
:10226C00100F0FD023686FF010021A610823237728
:10227C002368DB6913F4407F31D02046FFF7A4FFBD
:10228C000023237715F0010F02D016F0010F2DD18A
:10229C0015F0800F02D016F0800F2FD115F0400FE3
:1022AC0002D016F0400F31D115F0200F02D016F0ED
:1022BC00200F33D170BDFFF786FF2046FFF785FF57
:1022CC009CE72046FFF77FFF2046FFF77EFFABE73A
:1022DC002046FFF778FF2046FFF777FFBAE7204646
:1022EC00FFF771FF2046FFF770FFC9E723686FF017
:1022FC0001021A612046FEF753FBC9E723686FF011
:10230C0080021A61204600F076FAC7E723686FF066
:10231C0040021A612046FFF759FFC5E723686FF0AA
:10232C0020021A61204600F065FAC3E703681B4AD5
:10233C00904206D0B0F1804F03D0A2F59432904277
:10234C0003D123F070034A681343144A904206D019
:10235C00B0F1804F03D0A2F59432904203D123F414
:10236C004073CA68134323F080034A691343036024
:10237C008B68C3620B688362084B98420AD00123B6
:10238C004361036913F0010F03D0036923F00103C8
:10239C00036170470B690363F1E700BF002C014038
:1023AC0040B310B5044690F83D30F3B1022384F8E5
:1023BC003D30214651F8040BFFF7B8FF012384F898
:1023CC00463084F83E3084F83F3084F8403084F84E
:1023DC00413084F8423084F8433084F8443084F837
:1023EC00453084F83D30002010BD80F83C30FEF7BD
:1023FC00C9F8DBE70120704740B310B5044690F8EC
:10240C003D30F3B1022384F83D30214651F8040BE2
:10241C00FFF78CFF012384F8463084F83E3084F8B3
:10242C003F3084F8403084F8413084F8423084F8EE
:10243C00433084F8443084F8453084F83D30002033
:10244C0010BD80F83C30FFF7BDFEDBE70120704784
:10245C0030B4036A026A22F0100202624468826994
:10246C0022F4E6420D6842EA052223F020038D682F
:10247C0043EA05130C4DA84206D0446082614A68B9
:10248C008263036230BC704723F08003CD6843EA5B
:10249C00051323F0400324F440644D6944EA850499
:1024AC008D6944EA8504E8E7002C014038B590F8C2
:1024BC003C30012B66D004460D46012380F83C309D
:1024CC000C2A5AD8DFE802F0075959591B595959A7
:1024DC003059595944000068FFF75CFD2268936934
:1024EC0043F0080393612268936923F0040393611A
:1024FC002268936929690B43936100203EE00068D0
:10250C00FFF7A6FF2268936943F400639361226886
:10251C00936923F48063936122689369296943EA80
:10252C0001239361002029E00068FFF75DFD22681C
:10253C00D36943F00803D3612268D36923F0040301
:10254C00D3612268D36929690B43D361002015E05C
:10255C000068FFF777FD2268D36943F40063D36109
:10256C002268D36923F48063D3612268D369296913
:10257C0043EA0123D361002000E00120002384F80A
:10258C003C3038BD0220FCE710B4846824F47F4C46
:10259C0042EA03220A4342EA0C02826010BC7047F2
:1025AC0090F83C30012B78D010B50446012380F80C
:1025BC003C30022380F83D300268936823F47F435B
:1025CC0023F0770393600B68602B4CD023D8402BFF
:1025DC0054D011D8202B03D00AD80BB1102B05D115
:1025EC0019462068FFF777FD002028E0012026E03F
:1025FC00302BF5D0012022E0502B0AD1CA68496853
:10260C000068FFF743FD50212068FFF764FD0020B0
:10261C0015E0012013E0B3F5805F3AD0B3F5005F0D
:10262C0014D0702B37D1CB684A6889680068FFF7E3
:10263C00ABFF2268936843F077039360002001237B
:10264C0084F83D30002384F83C3010BDCB684A68D8
:10265C0089680068FFF798FF2268936843F4804309
:10266C0093600020EBE7CA6849680068FFF720FD1B
:10267C0060212068FFF72FFD0020E0E7CA68496859
:10268C000068FFF703FD40212068FFF724FD0020C0
:10269C00D5E70020D3E70120D1E70220704701F0F5
:1026AC001F014FF0010C0CFA01FC036A23EA0C0326
:1026BC000362036A8A4013430362704710B50446F1
:1026CC00084631BB94F83E30DBB2013B18BF012306
:1026DC00002B57D1002835D1022384F83E3001223B
:1026EC0001462068FFF7DBFF2368284A934239D064
:1026FC002368264A93423AD0B3F1804F37D0A2F5E3
:10270C009432934233D01A6842F001021A600020CE
:10271C0039E0042908D008290DD094F84130DBB2F7
:10272C00013B18BF0123D3E794F83F30DBB2013BE8
:10273C0018BF0123CCE794F84030DBB2013B18BF43
:10274C000123C5E7042805D0082807D0022384F804
:10275C004130C4E7022384F83F30C0E7022384F8F9
:10276C004030BCE75A6C42F400425A64C0E79A68A5
:10277C0002F00702062A07D01A6842F001021A601A
:10278C00002000E0012010BD0020FCE7002C0140DF
:10279C0090F83C20012A28D010B40346012280F87E
:1027AC003C20022280F83D2002685068946820F09A
:1027BC00700C086840EA0C0050601A680C488242A1
:1027CC0006D0B2F1804F03D0A0F59430824204D1F0
:1027DC0024F08004496821439160012283F83D2054
:1027EC00002083F83C0010BC70470220704700BFEB
:1027FC00002C014070477047026802F10C0353E84B
:10280C00003F23F0C0030C3242E800310029F3D121
:10281C00202380F841307047026802F10C0353E822
:10282C00003F23F490730C3242E800310029F3D1BD
:10283C00026802F1140353E8003F23F00103143241
:10284C0042E800310029F3D1036B012B05D0202382
:10285C0080F84230002303637047026802F10C03D6
:10286C0053E8003F23F010030C3242E800310029FA
:10287C00F3D1ECE790F84130DBB2212B01D00220F0
:10288C0070478368B3F5805F17D0036A5A1C0262E5
:10289C001A7803685A60C38C9BB2013B9BB2C38409
:1028AC004BB90268D36823F08003D3600268D36805
:1028BC0043F04003D360002070470369002BE4D140
:1028CC00036A1B880268C3F308035360036A02336C
:1028DC000362E0E710B504460268136923F4405321
:1028EC00C1680B43136183680269134342691A433D
:1028FC000168CB6823F4B05323F00C031343CB6073
:10290C000268536923F4407381690B435361026875
:10291C00134B9A4220D0FFF725FA024602EB8202B3
:10292C0002EB820263689B00B2FBF3F20D48A0FB42
:10293C0002314909642303FB11231B013233A0FB31
:10294C0003035B0903F0F00202EB011203F00F0327
:10295C00216813448B6010BDFFF714FA0246DDE7C3
:10296C00003801401F85EB512DE9F04383B005463B
:10297C000E4617469946DDF828802B681C6836EA07
:10298C0004040CBF01240024BC4228D1B8F1FF3F41
:10299C00F3D0FEF7CFF8A0EB0900404523D8B8F1EF
:1029AC00000F22D02B68DA6812F0040FE5D0802ECD
:1029BC00E3D0402EE1D01A6812F0080FDDD00024CD
:1029CC0001941A6801925B680193019B2846FFF7FA
:1029DC0023FF08236B6485F84040012000E00020B1
:1029EC0003B0BDE8F0830320FAE70320F8E760B3F7
:1029FC0010B5044690F8413013B3242384F84130C9
:102A0C002268D36823F40053D3602046FFF762FF9B
:102A1C002268136923F4904313612268536923F0ED
:102A2C002A0353612268D36843F40053D360002017
:102A3C006064202384F8413084F84230606310BD18
:102A4C0080F84030FDF77EFED7E7012070472DE976
:102A5C00F04182B01E4690F84130DBB2202B56D1AB
:102A6C0004460D469046002955D00AB901204FE086
:102A7C0000234364212380F84130FEF75BF80746BE
:102A8C00A4F82480A4F82680A368B3F5805F02D054
:102A9C004FF0000814E023692BB34FF000080FE04F
:102AAC00202384F84130032032E038F8023B2268BE
:102ABC00C3F308035360E28C92B2013A92B2E284FF
:102ACC00E38C9BB293B100963B46002280212046BA
:102ADC00FFF74AFF0028E3D1002DE6D015F8012BB3
:102AEC0023685A60E7E7A8460025E9E700963B46CD
:102AFC00002240212046FFF737FF18B9202384F825
:102B0C00413005E0202384F84130032000E002200E
:102B1C0002B0BDE8F0810120FAE7704708B5016802
:102B2C00CA6822F04002CA60202280F84120FFF7D8
:102B3C00F4FF002008BD70477047704710B5446A19
:102B4C0023685A6994F84130DBB2212B10D02368EA
:102B5C005A6902F0400294F84230DBB2222B11D0B9
:102B6C00636C43F0100363642046FFF7E6FF10BD6F
:102B7C0002F08002002AEAD00023E3842046FFF70B
:102B8C003BFEE4E7002AEBD00023E3852046FFF769
:102B9C0043FEE5E708B5406A0023C385C384FFF70D
:102BAC00CCFF08BD90F84230DBB2222B69D1836890
:102BBC00B3F5805F4FD0826AB3F5805F04D0002BF1
:102BCC0056D10369002B53D103685B681370836A79
:102BDC0001338362C38D9BB2013B9BB2C385002B37
:102BEC0051D100B583B00268D36823F02003D360C1
:102BFC000268D36823F48073D3600268536923F0AE
:102C0C0001035361202380F8423000234363036B9C
:102C1C00012B33D100230363026802F10C0353E848
:102C2C00003F23F010030C3242E800310029F3D1AD
:102C3C0003681A6812F0100F06D0002201921A686D
:102C4C0001925B680193019B818DFDF757FE00207B
:102C5C0003B05DF804FB0269002AACD1826A0368F8
:102C6C005B68C3F308031380836A02338362B1E7A2
:102C7C0003685B6803F07F031370A8E7FFF75BFF43
:102C8C00E5E70220704700207047000010B582B0C5
:102C9C00044602681368D068516913F00F0F09D10C
:102CAC0013F0200F0CD010F0200F09D02046FFF7A6
:102CBC0079FF16E011F0010115D110F4907F12D1BB
:102CCC00216B012979D013F0800F03D010F0800F05
:102CDC0040F0138113F0400F03D010F0400F40F080
:102CEC00108102B010BD13F0010F06D010F4807FDC
:102CFC0003D0626C42F00102626413F0040F04D042
:102D0C0019B1626C42F00202626413F0020F04D03B
:102D1C0019B1626C42F00402626413F0080F07D020
:102D2C0010F0200F00D119B1626C42F008026264FD
:102D3C00626C002AD5D013F0200F02D010F0200FB7
:102D4C0029D123685B6903F04003626C12F0080F11
:102D5C0000D163B32046FFF75FFD23685B6913F076
:102D6C00400F20D0226802F1140353E8003F23F0F7
:102D7C004003143242E800310029F3D1E36B73B104
:102D8C00624A5A63E06BFEF7E3FA0028A9D0E06BC5
:102D9C00436B9847A5E72046FFF704FFD1E7204691
:102DAC00FFF7CBFE9DE72046FFF7C7FE99E72046CD
:102DBC00FFF7C3FE0023636493E713F0100F82D078
:102DCC0010F0100F3FF47FAF0023019313680193B1
:102DDC0053680193019B536913F0400F51D0E26B80
:102DEC0013685B689BB2002B3FF47BAFA18D9942BB
:102DFC007FF677AFE3859369202B37D0226802F1F9
:102E0C000C0353E8003F23F480730C3242E800318A
:102E1C000029F3D1226802F1140353E8003F23F098
:102E2C000103143242E800310029F3D1226802F187
:102E3C00140353E8003F23F04003143242E80031FE
:102E4C000029F3D1202384F8423000232363226825
:102E5C0002F10C0353E8003F23F010030C3242E85C
:102E6C0000310029F3D1E06BFEF74FFA02236363C4
:102E7C00A18DE38D9BB2C91A89B22046FDF73EFDA8
:102E8C002FE7A18DE38D9BB2C91A89B2E38D9BB25A
:102E9C00002B3FF426AF00293FF423AF226802F148
:102EAC000C0353E8003F23F490730C3242E80030DB
:102EBC000028F3D1226802F1140353E8003F23F0F9
:102ECC000103143242E800300028F3D1202384F8A7
:102EDC00423000232363226802F10C0353E8003FC5
:102EEC0023F010030C3242E800300028F3D1022307
:102EFC0063632046FDF702FDF3E62046FFF7BAFCBC
:102F0C00EFE62046FFF70AFEEBE600BFA12B000818
:102F1C0008B5406A01234363036B012B02D0FFF712
:102F2C000BFE08BD818D4908FDF7E8FCF9E708B5F3
:102F3C000346406A1B681B6813F0200F2BD100233B
:102F4C00C385026802F10C0353E8003F23F480733D
:102F5C000C3242E800310029F3D1026802F114036B
:102F6C0053E8003F23F00103143242E800310029FA
:102F7C00F3D1026802F1140353E8003F23F040033D
:102F8C00143242E800310029F3D1202380F842307A
:102F9C00036B012B07D000234363036B012B0FD072
:102FAC00FFF7C9FD08BD026802F10C0353E8003FAE
:102FBC0023F010030C3242E800310029F3D1EAE788
:102FCC00818DFDF79BFCEDE730B583B004461346CD
:102FDC008162828500254564222280F84220C26BE2
:102FEC001F489062E26B1F48D062E26B1E48106370
:102FFC00E26B556320680A46011DE06BFEF74AF947
:10300C00019523681A6801925B680193019B2369FF
:10301C005BB1226802F10C0353E8003F43F4807368
:10302C000C3242E800310029F3D1226802F114037A
:10303C0053E8003F43F00103143242E80031002909
:10304C00F3D1226802F1140353E8003F43F040032C
:10305C00143242E800310029F3D1002003B030BD16
:10306C003B2F00081D2F0008492B000890F8423018
:10307C00DBB2202B27D110B582B0044629B312B98C
:10308C00012002B010BD0123036300234363FFF74B
:10309C009BFF236B012B01D00120F2E7002301934E
:1030AC0023681A6801925B680193019B226802F104
:1030BC000C0353E8003F43F010030C3242E800319C
:1030CC000029F3D1DDE7022070470120D9E7000089
:1030DC0070B5860747D0541E002A3ED00346CAB2AC
:1030EC0001E0013C39D303F8012B9D07F9D1032CE6
:1030FC002CD9CDB205EB05250F2C1A4605EB054551
:10310C0034D9A4F1100C2CF00F0603F1100EB644B8
:10311C004FEA1C1CC2E90055C2E902551032724537
:10312C00F8D10CF1010214F00C0F03EB021204F0B5
:10313C000F0C13D0ACF1040323F00303043313443A
:10314C0042F8045B9342FBD10CF003042CB1C9B2DE
:10315C001C4403F8011BA342FBD170BD644613460B
:10316C00002CF4D1F9E703461446C0E7A446E1E786
:10317C0070B50F4B0F4DAB42A3EB050607D00024E7
:10318C00B61055F8043B01349847A642F9D800F024
:10319C007FF8094D094B5E1BAB424FEAA60606D0E1
:1031AC00002455F8043B01349847A642F9D870BD69
:1031BC00F4320008F4320008F4320008FC32000843
:1031CC00704700BF704700BF024B13B1024800F0BC
:1031DC0005B8704700000000F531000800230146D7
:1031EC001A46184600F014B838B5074D074C2C1B7E
:1031FC00A41005D0013C55F8043D9847002CF9D19A
:10320C00BDE8384000F04AB800330008FC32000832
:10321C002DE9F8431B4D0646286898460F46914603
:10322C00FFF7CEFF184B1C681CB3286865681F2D70
:10323C0022DC4EB96B1C0235636044F82570FFF735
:10324C00C1FF0020BDE8F883012304EB8501C1F820
:10325C008890D4F88821AB401A43022EC4F88821F8
:10326C00C1F80881E6D1D4F88C211A43C4F88C211A
:10327C00E0E7064C1C60D8E7FFF7A4FF4FF0FF30E7
:10328C00E0E700BF1000002054020020580200208C
:10329C00F8B500BFF8BC08BC9E467047F8B500BF37
:0832AC00F8BC08BC9E46704707
:1032B4000000000001020304000000000000000000
:1032C40001020304060708090102000002030405C1
:1032D400060708090A0B0C0D0E0F1010010200005E
:1032E40002030405060708090A0B0C0D0E0F101043
:0832F400D53100087501000846
:0432FC004D01000878
:1033000000127A00FA0000FF030101001000000023
:043310005002002047
:040000050800080DDA
:00000001FF
